:020000040800F2
:10000000D80500204501000829400008C132000839
:10001000254000085109000895470008000000002D
:10002000000000000000000000000000594300082C
:100030005509000800000000654000085B43000807
:100040005F0100085F0100085F0100085F01000810
:100050005F0100085F0100085F0100085F01000800
:100060005F0100085F0100085F0100085F010008F0
:100070005F0100085F0100085F0100085F010008E0
:100080005F0100085F0100085F0100085F010008D0
:100090005F0100085F0100085F0100085F010008C0
:1000A0005F0100085F0100085F0100085F010008B0
:1000B0005F0100085F0100085F0100085F010008A0
:1000C0005F0100085F0100085F0100085F01000890
:1000D0005F0100085F0100085F0100085F01000880
:1000E0005F010008914000085F0100085F010008FF
:1000F0005F0100085F0100085F0100085F01000860
:100100005F0100085F0100085F0100085F0100084F
:100110005F0100085F0100085F0100085F0100083F
:100120005F0100085F0100085F0100085F0100082F
:10013000DFF80CD000F08EFB00480047A553000804
:10014000D80500200648804706480047FEE7FEE73E
:10015000FEE7FEE7FEE7FEE7FEE7FEE7FEE7FEE777
:10016000F143000831010008202A04DB203A21FA7B
:1001700002F00021704721FA02F3D040C2F12002C0
:100180009140084319467047D2B201E000F8012BB4
:10019000491EFBD270470022F6E710B513460A4607
:1001A00004461946FFF7F0FF204610BD2DE9FE4F2B
:1001B000804681EA0300C00F0C46009021F0004108
:1001C00023F00045B8EB0200A94105D24046214684
:1001D00090461C460B46024623F00040104347D091
:1001E000270DC7F30A00C3F30A510290401A019089
:1001F00040286BDAC3F3130040F4801B009892464A
:1002000020B10023D2EB030A63EB0B0B0198594694
:10021000C0F14002504600F038FA06460D465046FE
:100220005946019A00F040FA10EB080061410024A1
:1002300087EA115284EAE7731A4340D0009A62B306
:10024000019A012A4FEA075215DC001B61EB0201FB
:100250004FF0004202EA0752CDE90042001C41F58E
:10026000801132462B4600F077FA03B0BDE8F08FDC
:1002700040462146F9E7001B61EB0201001C41F5F5
:10028000801300185B412018A2F5001747EB03010B
:1002900040EAD570B6196D4111E06D084FEA360697
:1002A00045EAC0754FEA0752001B61EB0201001CD2
:1002B00041F5801149084FEA30000019514132469A
:1002C0002B4603B0BDE8F04F00F037BA009801228A
:1002D00040000023D0EB020263EBE073009821465C
:1002E0004FEAE074B8EB000061EB0401E9E783F04A
:1002F00000435BE781F0004158E72DE9FE4F81EABA
:10030000030404F0004421F0004100944FF0000B7E
:1003100023F0004350EA01045ED052EA03045BD0AC
:10032000C3F30A54C1F30A552C44A4F2F3340194E4
:10033000A0FB0254C1F3130141F48011C3F3130372
:1003400043F4801301FB024400FB034E840A970A26
:1003500044EA815447EA8357A4FB076802958D0A53
:1003600005FB07854FEA932C04FB0C542705029DDF
:100370004FEA065847EA1637B5EB08056EEB070C4F
:10038000870E920E47EA811742EA8312A7FB020109
:10039000B6EB0B0164EB00042B0D43EA0C335E1843
:1003A00044EB1C50DA465146E7FB0201C5F3130447
:1003B0004FEA0B3343EA14534FEA0432019C43EAF9
:1003C0000603A4F10C040294009CCDE900B400F0F3
:1003D000C3F903B0BDE8F08F00200146F9E72DE92D
:1003E000F04D81EA030404F0004B21F0004514466F
:1003F0004FF0000A23F0004150EA050220D054EAF1
:1004000001021DD0C5F30A570246C5F31303C1F319
:100410001300C1F30A5640F4801543F48013A7EB90
:100420000608101BD64608F2FD3873EB050002D310
:1004300008F1010801E092185B41B8F1000F03DAFE
:1004400000200146BDE8F08D00204FF480110646E3
:1004500084460EE0171B73EB050705D3121B63EBF5
:10046000050306434CEA010C49084FEA3000921894
:100470005B4150EA0107EDD152EA030012D082EA53
:10048000040083EA0501084305D0101BAB4106D2E6
:100490000122002306E000224FF0004302E06FF04B
:1004A000010253101AEB06004CEB085110EB0A0046
:1004B00041EB0B01BDE8F04D00F03FB9C10F80EA00
:1004C000E0700844CA079623002100F008B996237B
:1004D0000022114600F003B90EB5C10F80EAE070AA
:1004E0000844CA07002140F233438DE80E000A4653
:1004F0000B4600F031F903B000BD0EB540F23341B8
:1005000002910021CDE900110A460B4600F024F9C2
:1005100003B000BD00F0004230F000400AD0C10D31
:1005200001F56071C0F3160042EA0151C2084007AC
:1005300011437047002001467047000030B5041E8B
:1005400071F1000404DB4FF00044404264EB010110
:10055000141E73F1000405DB1C464FF000435242A9
:1005600063EB04038B4208BF824230BD30B5041EEA
:1005700071F1000404DB4FF00044404264EB0101E0
:10058000141E73F1000405DB1C464FF00043524279
:1005900063EB0403994208BF904230BD01F0004371
:1005A00030B421F0004150EA010206D00A0DA2F554
:1005B0006072C1F31301002A02DC30BC00207047D6
:1005C000440F44EAC104C100E01830BC00EBC25043
:1005D00000F07CB8002801DBC0F10040002901DBFD
:1005E000C1F1004181427047002801DBC0F10040A9
:1005F000002901DBC1F100418842704730B50B464C
:10060000014600202022012409E021FA02F59D4242
:1006100005D303FA02F5491B04FA02F52844151E16
:10062000A2F10102F1DC30BD2DE9F05F05460020AA
:1006300092469B4688460646814640241BE0284653
:10064000414647462246FFF78FFD53465A46C01A99
:10065000914110D311461846224600F016F82D1A83
:1006600067EB01084F4622460120002100F00DF8FB
:1006700017EB00094E41201EA4F10104DFDC4846BF
:1006800031462A464346BDE8F09F202A04DB203A43
:1006900000FA02F1002070479140C2F1200320FAD5
:1006A00003F3194390407047202A06DBCB17203A0A
:1006B00041FA02F043EAE07306E041FA02F3D04067
:1006C000C2F1200291400843194670470029A8BF93
:1006D0007047401C490008BF20F00100704710B46B
:1006E000B0FA80FC00FA0CF050EA010404BF10BC20
:1006F000704749B1CCF1200421FA04F411FA0CF14D
:1007000018BF012121430843A3EB0C01CB1D4FEA85
:1007100000614FEA102042BF002010BC704700EB80
:10072000C35010440029A4BF10BC7047401C4900AE
:1007300008BF20F0010010BC704710B5141E73F103
:10074000000408DA401C41F1000192185B411A4391
:1007500001D120F0010010BD2DE9F04D92469B46DD
:1007600011B1B1FA81F202E0B0FA80F22032904683
:10077000FFF78BFF04460F4640EA0A0041EA0B01EF
:1007800053465A46084313D0114653EA010019D084
:10079000C8F140025046FFF7E7FC05460E465046BA
:1007A00059464246FFF771FF084305D0012004E097
:1007B00020463946BDE8F08D0020054346EAE07644
:1007C0002C4337430A986305E40AA0EB0800002293
:1007D000FD0A44EA47540A3002D500200146E9E701
:1007E000010510196941DDE9084500196941BDE8B5
:1007F000F04DA2E770B521F0004303430CD0C1F3E4
:100800000A550024D5EB040564EB0403D617AD1A92
:10081000B34102DB0020014670BD201841EB0251BC
:1008200070BDC1F30A52C1F3130140F2FF3341F42A
:1008300080119A4202DA00200146704740F23343A9
:100840009A42A2F2334202DC5242FFF78DBCFFF71C
:100850001CBF0000064C074D06E0E06840F00103B5
:1008600094E8070098471034AC42F6D3FFF764FCD5
:10087000C0660008E066000870B5044600252068E0
:10088000806800F00100F0B12068806820F001006D
:100890002168886000F0C4FE05460EE000F0C0FE4E
:1008A000401B022809D9A06A40F01000A062E06A4B
:1008B00040F00100E062012070BD2068806800F017
:1008C00001000028EAD10020F6E7000038B5044610
:1008D0000025002000902068806800F0010080BBA7
:1008E0002068806840F00100216888601648006830
:1008F0001649B0FBF1F0009002E00098401E009015
:1009000000980028F9D100F08BFE054613E000F0B6
:1009100087FE401B02280ED9A06A40F01000A0629A
:10092000E06A40F00100E06200BF002084F824008B
:1009300000BF012038BD2068806800F00100002859
:10094000E5D00020F6E700001400002040420F0030
:1009500000BFFEE7704701B502E00098401E00901E
:1009600000980028F9D108BD7047000070B5044612
:10097000B3F5804F13D1D1E9000540EA05108D6829
:1009800040EA05208D6928438D8940EA054054F8E6
:100990002250064E3540284344F8220003E06FF011
:1009A000704044F82200002070BD00000000F0CF2D
:1009B00010B50246086852F8200020F001000B68CC
:1009C00042F823008868082822D1486840F0400097
:1009D0008B681843CB6818430B6918434B6918435D
:1009E0008B691843CB6918430B6A18434B6A184349
:1009F0008B6A1843CB6A18430B6B18430B6852F889
:100A00002330144C234018430B6842F823001FE0A6
:100A1000D1E901031843CB6818430B6918434B69AC
:100A200018438B691843CB6918430B6A18434B6A08
:100A300018438B6A1843CB6A18430B6B18430B6837
:100A400052F82330034C234018430B6842F823002C
:100A5000002010BD8100F7FF10B50346D1E9000466
:100A600040EA04108C6840EA04208C8940EA04447F
:100A7000088A401E44EA0054087D801E44EA006053
:100A80008C692043541C53F8244004F04044204314
:100A9000541C43F82400002010BD0000F8B50446A3
:100AA00000260020009000BF94F82400012801D106
:100AB0000220F8BD012084F8240000BF2046FFF783
:100AC000DBFE0646002E62D1A06A20F4885040F07A
:100AD0000200A062022001F0EFF930490968B1FB81
:100AE000F0F04000009002E00098401E0090009856
:100AF0000028F9D12046FFF7E9FE2068806840F021
:100B000008002168886000F08BFD054611E000F0C8
:100B100087FD401B0A280CD9A06A20F0020040F093
:100B20001000A06200BF002084F8240000BF012054
:100B3000BFE72068806800F008000028E7D120683F
:100B4000806840F004002168886000F069FD054677
:100B500011E000F065FD401B0A280CD9A06A20F0C6
:100B6000020040F01000A06200BF002084F82400C2
:100B700000BF01209DE72068806800F00400002885
:100B8000E7D1A06A20F0020040F00100A06200BF9F
:100B9000002084F8240000BF30468AE714000020BB
:100BA00038B5024600230020009000BF92F82400D0
:100BB000012801D1022038BD012082F8240000BFA5
:100BC0004868072812D21068406B0C79641E04EB49
:100BD00084051F24AC40A0430D796D1E05EB8505EF
:100BE0000C68AC4020431468606327E048680D2817
:100BF00012D21068006B0C79E41F04EB84051F24EB
:100C0000AC40A0430D79ED1F05EB85050C68AC40A9
:100C100020431468206311E01068C06A0C790D3C11
:100C200004EB84051F24AC40A0430D790D3D05EB7A
:100C300085050C68AC4020431468E06208680A2807
:100C400012D31068C0680C780A3C04EB44050724F2
:100C5000AC40A0430D780A3D05EB45058C68AC40DF
:100C600020431468E0600FE0106800690C7804EB22
:100C700044050724AC40A0430D7805EB45058C687E
:100C8000AC402043146820610868102802D008682E
:100C9000112827D1174C1068A0421ED11068806817
:100CA00000F40000F0B91068806840F40000146897
:100CB000A0600868102815D10F4800680F4CB0FBE1
:100CC000F4F000EB80004000009002E00098401E2D
:100CD000009000980028F9D104E0906A40F02000CC
:100CE0009062012300BF002082F8240000BF184654
:100CF00061E70000002401401400002040420F0082
:100D000001460868C06C70472DE9F0410446002791
:100D100000250026A84614B90120BDE8F081A0688E
:100D200010B1606900B100BFA06A30B90020E06274
:100D300084F82400204600F097F82046FFF79CFD39
:100D40000746A06A00F01000002873D1002F7ED162
:100D5000A06A20F4885040F00200A0623F4AD4E923
:100D60000001904208D1E069B0F5402F02D14FF464
:100D7000002002E0E06900E0E0690143E06841EA48
:100D800040000643A068B0F5807F02D0A06801282B
:100D900002D14FF4807000E0002005436069012813
:100DA00011D1E06838B9A069401E4FF4006141EAF2
:100DB0004030054307E0A06A40F02000A062E06AEE
:100DC00040F00100E0622068406820F46940284358
:100DD00021684860206880682149084030432168C4
:100DE0008860A068B0F5807F02D0A068012802D199
:100DF0004FF4807000E00020B0F5807F03D1208A9E
:100E0000401E4FEA00582068C06A20F4700040EA93
:100E100008002168C8622068806812490840B04212
:100E200009D10020E062A06A20F0020040F0010039
:100E3000A06211E00BE0A06A20F0020040F0100078
:100E4000A062E06A40F00100E062012704E0A06ACD
:100E500040F01000A062012738465EE7003C0140E8
:100E6000FDF7E1FFFE0E1FFF10B586B0044600201F
:100E700002900390049005903C492068884223D159
:100E800000BF3B48806940F40070394988610846DA
:100E9000806900F40070019000BF00BF00BF0846E9
:100EA000806940F0040088610846806900F0040011
:100EB000019000BF00BF402002900320039002A9D0
:100EC0002C4800F0FFF94EE02B492068884223D1DE
:100ED00000BF2748806940F4806025498861084642
:100EE000806900F48060019000BF00BF00BF084629
:100EF000806940F0040088610846806900F00400C1
:100F0000019000BF00BF042002900320039002A9BB
:100F1000184800F0D7F926E018492068884222D105
:100F200000BF1348806940F40040114988610846B9
:100F3000806900F40040019000BF00BF00BF084678
:100F4000806940F0040088610846806900F0040070
:100F5000019000BF00BF082002900320039002A967
:100F6000044800F0AFF906B010BD000000240140B5
:100F7000001002400008014000280140003C0140F0
:100F8000F8B504460D46002600200090002700F02A
:100F900047FB06462068806800F4807050B1A06A64
:100FA00040F02000A06200BF002084F8240000BFB1
:100FB0000120F8BD2068406800F48070F8B920680E
:100FC000C06A00F47000D0B912E0681C80B125B18D
:100FD00000F026FB801BA8420AD9A06A40F004005A
:100FE000A06200BF002084F8240000BF0320E0E7D7
:100FF0002068006800F002000028E6D050E00220DF
:1010000000F05AFF36490968B1FBF0F02168096920
:10101000344A114091B92168C9689211114069B9E7
:1010200021680969304A114031B92168C9689211B3
:10103000114009B9142117E0292115E02168096937
:10104000294A114021B92168C9689211114041B162
:1010500021680969254A114029B92168C9681140E8
:1010600009B9542100E0FC2100FB01F715E0681CE0
:1010700080B125B100F0D4FA801BA8420AD9A06A39
:1010800040F00400A06200BF002084F8240000BFEC
:1010900003208EE70098401C00900098B842E6D3E9
:1010A0006FF0120021680860A06A40F40070A0622E
:1010B0002068806800F46020B0F5602F0DD1E068F2
:1010C00058B9A06A20F48070A062A06A00F4805031
:1010D00018B9A06A40F00100A062002069E7000092
:1010E0001400002024499224922449124992240099
:1010F00070B50446002500BF94F82400012801D1F2
:10110000022070BD012084F8240000BF2046FFF7B4
:10111000DDFB0546002D77D1A06A40F2012188430E
:1011200040F48070A0623C492068884208D13B4866
:10113000006800F4702008B9012002E0002000E0FF
:10114000012078B1A06A20F48010A0622068406875
:1011500000F4806000B3A06A20F4005040F4805096
:10116000A06219E0A06A40F48010A0622B49091F18
:101170002068884203D028492068884204D1274843
:10118000006800F4806000E0002028B1A06A20F42C
:10119000005040F48050A062A06A00F4805020B15A
:1011A000E06A20F00600E06201E00020E06200BF9B
:1011B000002084F8240000BFC01E21680860206859
:1011C000806800F46020B0F5602F16D112492068C5
:1011D000884208D11148006800F4702008B9012045
:1011E00002E0002000E0012038B12068806840F46F
:1011F000A000216888600CE006E02068806840F468
:1012000080102168886004E000BF002084F824007A
:1012100000BF284675E70000002801400424014073
:1012200070B5044600F0FCF906462546681C10B16E
:1012300004480078054400BF00F0F2F9801BA84282
:10124000FAD370BD1000002000B585B000200190D9
:101250000290039004901748006808B105B000BDE3
:1012600001201449086000BF1348406940F48070B1
:10127000114948610846406900F48070009000BF41
:1012800000BF4FF68070019002200290032004906E
:1012900001A90A4800F016F84CF6B370019002203C
:1012A00002900320049001A9054800F00BF800BF4C
:1012B000D4E70000000000200010024000180140A8
:1012C000001401402DE9F8470246002400200025C3
:1012D0008446002700237BE14FF0010808FA03F45D
:1012E000D1F8008008EA0400A0427DD1DFF8ECA22A
:1012F000D1F80480A8EB0A09D0453AD014DCB8F143
:10130000030F50D009DCB8F1000F31D0B8F1010F54
:101310001CD0B8F1020F49D120E0B8F1110F18D05C
:10132000B8F1120F42D11EE0B9F5881F25D006DCB6
:10133000B9F5803F20D0B9F5801F37D11AE0B9F553
:10134000001F18D0B9F5041F30D117E0D1F80CC038
:101350002DE0D1F80C8008F1040C28E0D1F80C80C5
:1013600008F1080C23E0D1F80C8008F10C0C1EE009
:1013700000BF00BF00BF00BF00BF00BFD1F80880A2
:10138000B8F1000F02D14FF0040C0BE0D1F8088047
:10139000B8F1010F03D14FF0080C146102E04FF0D7
:1013A000080C546103E04FF0000C00E000BF00BFE8
:1013B000FF2801D8904601E002F104084646FF28C4
:1013C00002D84FEA830803E0A3F108084FEA88082F
:1013D0004746D6F800804FF00F0909FA07F928EAC6
:1013E00009080CFA07F900E07AE048EA0908C6F8AB
:1013F0000080D1F8048008F08058B8F1805F6FD188
:1014000000BFDFF8DC81D8F8188048F00108DFF869
:10141000D091C9F81880C846D8F8188008F001089B
:10142000CDF8008000BF00BF4FEAB9384FEA9309FA
:1014300058F829504FEA83784FEA18794FF00F088F
:1014400008FA09F825EA0805DFF89881424502D133
:101450004FF0000824E0DFF89081424502D14FF0C0
:1014600001081DE0DFF88481424502D14FF00208F7
:1014700016E0DFF87C81424502D14FF003080FE00F
:10148000DFF87081424502D14FF0040808E0DFF830
:101490006881424502D14FF0050801E04FF006088F
:1014A0004FEA83794FEA197908FA09F848EA0505FD
:1014B000DFF848814FEA930948F82950D1F80480B1
:1014C00008F48038B8F5803F0BD1DFF83481D8F8C4
:1014D000008048EA0008DFF82891C9F800800AE097
:1014E00075E0DFF81C81D8F8008028EA0008DFF8F2
:1014F0001091C9F80080D1F8048008F40038B8F5DC
:10150000003F0ED1DFF8F88008F10408D8F8008019
:1015100048EA0008DFF8E89009F10409C9F80080FA
:101520000DE0DFF8DC8008F10408D8F8008028EA34
:101530000008DFF8CC9009F10409C9F80080D1F85F
:10154000048008F48018B8F5801F0ED1DFF8B08051
:1015500008F10808D8F8008048EA0008DFF8A090F1
:1015600009F10809C9F800800DE0DFF8948008F15E
:101570000808D8F8008028EA0008DFF8849009F10C
:101580000809C9F80080D1F8048008F40018B8F5FB
:10159000001F0ED1DFF8688008F10C08D8F8008031
:1015A00048EA0008DFF8589009F10C09C9F80080F2
:1015B0000DE0DFF84C8008F10C08D8F8008028EA2C
:1015C0000008DFF83C9009F10C09C9F800805B1CA9
:1015D000102BFFF481AEBDE8F88700000000111069
:1015E0000010024000080140000C014000100140C2
:1015F0000014014000180140001C01400800014097
:1016000000040140024693680B400BB1012000E04A
:10161000002070470AB1016101E00B0403617047CB
:1016200001480068704700000800002070B50446BB
:10163000002600250CB9012070BD94F83D0028B9A2
:10164000002084F83C00204600F016FB242084F89B
:101650003D002068006820F001002168086000F06B
:101660004FFE05464C496068884206D84B48854283
:1016700001D2012007E0002005E04948854201D25F
:10168000012000E00020012800D1D5E74548B5FB46
:10169000F0F62068466040496068884201D8701CB6
:1016A00007E04FF4967070434FF47A71B0FBF1F09D
:1016B000401C2168086238496068884214D8681E56
:1016C00061684900B0FBF1F0401CC0F30B00042836
:1016D00001D204203DE0681E61684900B0FBF1F0D2
:1016E000401CC0F30B0034E0A06838B9681E616884
:1016F00001EB4101B0FBF1F0401C0AE0681E61689B
:1017000001EBC10202EB0111B0FBF1F0401C40F40F
:101710008040C0F30B0008B901201AE0A06848B966
:10172000681E616801EB4101B0FBF1F0401CC0F3A1
:101730000B000CE0681E616801EBC10202EB0111B5
:10174000B0FBF1F0401CC0F30B0040F4804040F4CB
:1017500000402168C861D4E9070108432168086096
:10176000D4E90310084321688860D4E905010843DF
:101770002168C8602068006840F0010021680860A6
:1017800000202064202084F83D000020206384F89D
:101790003E0000BF50E70000A086010080841E00CC
:1017A00000093D0040420F002DE9FC5F04460F4652
:1017B00090469946DDE90CAB0E9E0025FFF730FF01
:1017C000054694F83D0020287ED119230122C54901
:1017D0002046009501F0D7FE10B10220BDE8FC9F25
:1017E00000BF94F83C00012801D10220F6E7012057
:1017F00084F83C0000BF2068006800F0010028B9B0
:101800002068006840F001002168086020680068D6
:1018100020F4006021680860222084F83D00402008
:1018200084F83E0000202064C4F824A0A4F82AB064
:10183000AD48E062608D20854B46424639462046E1
:10184000CDE9006501F058FD80B1206C042806D177
:1018500000BF002084F83C0000BF0120BEE700BFAD
:10186000002084F83C0000BF0320B7E7208D88B932
:1018700000BF0020019020684069019020688069C5
:10188000019000BF00BF2068006840F4007021682C
:1018900008604CE0208D01281BD12068006820F4EE
:1018A00080602168086072B600BF00200190206847
:1018B0004069019020688069019000BF00BF2068E6
:1018C000006840F4007000E009E12168086062B639
:1018D0002DE0208D022819D12068006840F40060B6
:1018E0002168086072B600BF00200190206840693E
:1018F000019020688069019000BF00BF20680068E7
:1019000020F480602168086062B610E020680068FA
:1019100040F480602168086000BF002001902068CA
:101920004069019020688069019000BF00BFC7E056
:10193000208D032875D8208D01281AD12A463146DA
:10194000204601F0B4FE30B1206C202801D10320E4
:1019500044E7012042E720680069C1B2626A501C76
:1019600060621170208D401E2085608D401E608554
:10197000A6E0208D02282CD1334600225B49204668
:10198000009501F000FE08B1032027E772B6206839
:10199000006840F400702168086020680069C1B2E6
:1019A000626A501C60621170208D401E2085608D1F
:1019B000401E608562B620680069C1B2626A501C30
:1019C00060621170208D401E2085608D401E6085F4
:1019D00076E03346002245492046009501F0D3FDCC
:1019E00008B10320FAE62068006820F480602168CE
:1019F000086072B620680069C1B2626A501C6062F9
:101A00001170208D401E2085608D401E60853346FC
:101A1000002236492046009501F0B5FD10B10320A3
:101A2000DCE621E02068006840F40070216808606E
:101A300020680069C1B2626A501C60621170208D1A
:101A4000401E2085608D401E608562B6206800695A
:101A5000C1B2626A501C60621170208D401E2085E8
:101A6000608D401E60852BE02A463146204601F0FD
:101A70001EFE30B1206C202801D10320AEE60120EB
:101A8000ACE620680069C1B2626A501C60621170E5
:101A9000208D401E2085608D401E60852068406935
:101AA000C0F3800060B120680069C1B2626A501C56
:101AB00060621170208D401E2085608D401E608503
:101AC000208D00287FF434AF202084F83D000020D2
:101AD00084F83E0000BF84F83C0000BF7EE6022090
:101AE0007CE60000020010000000FFFF040001007F
:101AF0002DE9FC5F04460F4690469946DDE90CABA4
:101B00000E9E0025FFF78CFD054694F83D00202829
:101B10007ED11923012256492046009501F033FD5C
:101B200010B10220BDE8FC9F00BF94F83C000128E2
:101B300001D10220F6E7012084F83C0000BF2068B4
:101B4000006800F0010028B92068006840F001003A
:101B5000216808602068006820F40060216808603F
:101B6000212084F83D00402084F83E0000202064BD
:101B7000C4F824A0A4F82AB03E48E062608D208515
:101B80004B46424639462046CDE9006501F060FCEF
:101B900080B1206C042806D100BF002084F83C00EE
:101BA00000BF0120BEE700BF002084F83C0000BF5A
:101BB0000320B7E733E02A463146204601F0AEFD68
:101BC00060B1206C042807D12068006840F40070E0
:101BD000216808600120A5E70320A3E7616A481C8B
:101BE0006062087821680861208D401E2085608D24
:101BF000401E608520684069C0F3800078B1208D68
:101C000068B1616A481C606208782168086100E078
:101C10002CE0208D401E2085608D401E6085208D2B
:101C20000028C8D12A463146204601F081FC60B127
:101C3000206C042807D12068006840F400702168F7
:101C4000086001206EE703206CE72068006840F41C
:101C5000007021680860202084F83D00002084F88E
:101C60003E0000BF84F83C0000BF5BE7022059E75C
:101C7000020010000000FFFF10B586B004460020EF
:101C800002900390049005901D492068884234D149
:101C900000BF1C48806940F008001A498861084666
:101CA000806900F00800019000BF00BF4FF4406061
:101CB0000290122003900320059002A91248FFF71A
:101CC00001FB00BF0F48C06940F480000D49C861A6
:101CD0000846C06900F48000019000BF00BF0846BC
:101CE000006940F4800008610A20FFF799FA05486E
:101CF000006920F480000349086106B010BD0000AF
:101D00000058004000100240000C014003480068E9
:101D10000349097808440149086070470800002019
:101D20001000002010B50848006840F01000064977
:101D30000860032000F0A6F8002000F007F800F08B
:101D40002BF8002010BD00000020024070B50446B2
:101D50000E4800784FF47A71B1FBF0F00C49096835
:101D6000B1FBF0F5284601F06EF808B1012070BD16
:101D7000102C07D200222146501E00F044F80548DE
:101D8000046001E00120F2E70020F0E710000020ED
:101D9000140000200C00002008B500BF1148806925
:101DA00040F001000F4988610846806900F0010099
:101DB000009000BF00BF00BF0846C06940F08050DF
:101DC000C8610846C06900F08050009000BF00BFA5
:101DD00000BF0549486820F0E06040F000704860AE
:101DE00000BF08BD001002400000014000BF00F02D
:101DF0001F02012191404209920002F1E022C2F843
:101E0000001100BF70472DE9F05F80460D46164671
:101E1000002702F00BF9074639462A46334601F0FF
:101E20000700C0F1070ABAF1040F02D94FF0040A03
:101E300001E0C0F1070AD14600F1040ABAF1070F28
:101E400002D24FF0000A01E0A0F1030AD4464FF09D
:101E5000010A0AFA09FAAAF1010A0AEA020A0AFAC6
:101E60000CFA4FF0010B0BFA0CFBABF1010B0BEA78
:101E7000030B4AEA0B042146404602F0DFF8BDE8B6
:101E8000F09F000000BF00F00702064B19684FF6F4
:101E9000FF031940044B0B4343EA0221014B196035
:101EA00000BF70470CED00E00000FA050120014979
:101EB0000862704700000E422DE9F04385B00646E7
:101EC00044A30FCB01AC0FC446A0006800904FF0B4
:101ED0000008002500270024A146042E36D004DC8B
:101EE000012E3BD0022E6FD162E0082E32D0102E90
:101EF0006AD13D484468006800F0807000B301A8D2
:101F0000C4F38341475C04F4803070B136484068C4
:101F1000C0F340401DF8008004F4803040B13348E5
:101F2000B0FBF8F000FB07F502E0314807FB00F5D5
:101F30002D48406800F48000B0F5800F01D1A9461B
:101F400003E068000321B0FBF1F93EE000F0F8F98E
:101F500081463AE000F0F4F9814636E02248046A0E
:101F600004F44070B0F5807F05D104F0020010B198
:101F70004FF400491BE004F44070B0F5007F07D136
:101F80001948406A00F0020010B149F640490EE0DD
:101F900004F44070B0F5407F07D11348006800F4A6
:101FA000003010B14FF2244901E04FF000090CE07D
:101FB00000F0B6F90C494968C1F38131491C490068
:101FC000B0FBF1F901E0FFE700BF00BF484605B0F4
:101FD000BDE8F08302030405060708090A0B0C0D8F
:101FE0000E0F1010010200000010024000127A00D3
:101FF00000093D00F8B5044600260025207800F0D1
:10200000010000286BD000274348C06900F08050D1
:1020100070B900BF4048C06940F080503E49C86177
:102020000846C06900F08050009000BF00BF012743
:102030003A48006800F48070B0B93848006840F44D
:10204000807036490860FFF7EBFA064606E0FFF7B6
:10205000E7FA801B642801D90320F8BD2F480068E7
:1020600000F480700028F2D02B48006A00F440751C
:102070002DB3A08800F44070A84220D02648006A02
:1020800020F440750120264908600020086022489D
:10209000056205F0010090B1FFF7C2FA064608E0BC
:1020A000FFF7BEFA801B41F28831884201D9032034
:1020B000D3E71948006A00F002000028F0D0164863
:1020C000006A20F440706168084313490862012FD8
:1020D00004D10846C06920F08050C86100BF207854
:1020E00000F00200022807D10B48406820F440406D
:1020F000A168084308494860207800F010001028C3
:1021000007D10548406820F480006169084302490E
:1021100048600020A1E7000000100240007000406D
:102120004004424270B504460D4600266D480068E2
:1021300000F00700A8420ED26A48006820F00700AD
:102140002843684908600846006800F00700A84274
:1021500001D0012070BD207800F0020002281DD1BE
:10216000207800F00400042805D15F48406840F45E
:10217000E0605D494860207800F00800082805D13B
:102180005948406840F46050574948605648406894
:1021900020F0F000A168084353494860207800F01F
:1021A000010000285DD06068012806D14E48006813
:1021B00000F4003090B90120CCE76068022806D115
:1021C0004948006800F0007040B90120C2E7464865
:1021D000006800F0020008B90120BBE742484068EF
:1021E00020F00300616808433F494860FFF718FA90
:1021F00006466068012810D108E0FFF711FA801B3D
:1022000041F28831884201D90320A3E7364840686B
:1022100000F00C000428F0D123E06068022810D1FF
:1022200008E0FFF7FDF9801B41F28831884201D9AF
:1022300003208FE72C48406800F00C000828F0D1FC
:102240000FE008E0FFF7ECF9801B41F2883188428B
:1022500001D903207EE72448406800F00C000028E4
:10226000F0D12048006800F00700A8420ED91D48B0
:10227000006820F0070028431A49086008460068F3
:1022800000F00700A84201D0012063E7207800F0A9
:102290000400042807D11448406820F4E060E16895
:1022A000084311494860207800F00800082808D148
:1022B0000D48406820F46050216940EAC1000A4995
:1022C000486000F03DF808494968C1F30311074A26
:1022D000515CC840064908600020FFF737FD002028
:1022E00038E700000020024000100240106600089D
:1022F000140000200148006870470000140000200E
:1023000000B5FFF7F7FF04494968C1F30221034A0A
:10231000515CC84000BD000000100240206600086B
:1023200000B5FFF7E7FF04494968C1F3C221034A3A
:10233000515CC84000BD000000100240206600084B
:10234000F0B585B00FF26C0C9CE8E01001A8A0E895
:10235000E0101CA52D680095002100220023002418
:102360000020194D696801F00C05F5B1042D02D06B
:10237000082D19D101E0154819E001ADC1F38346DC
:10238000AC5D01F4803555B10F4D6D68C5F3404526
:102390001DF805200D4D6543B5FBF2F302E00C4D31
:1023A00004FB05F3184602E000BF084800BF00BF69
:1023B00005B0F0BD02030405060708090A0B0C0D61
:1023C0000E0F1010010200000010024000127A00EF
:1023D00000093D00F8B504460025207800F0010012
:1023E000002878D0F848406800F00C0004280CD091
:1023F000F548406800F00C00082811D1F248406808
:1024000000F48030B0F5803F0AD1EF48006800F456
:10241000003000285FD0606800285CD10120F8BD42
:1024200000BF6068B0F5803F06D1E748006840F41F
:102430008030E549086028E0606858B9E2480068E3
:1024400020F48030E04908600846006820F48020CD
:1024500008601AE06068B0F5A02F0BD1DA48006878
:1024600040F48020D84908600846006840F4803075
:1024700008600AE0D448006820F48030D24908603F
:102480000846006820F48020086000BF606888B1BA
:10249000FFF7C6F8054606E0FFF7C2F8401B6428C0
:1024A00001D90320BBE7C848006800F400300028C9
:1024B000F2D010E0FFF7B4F8054606E0FFF7B0F8F9
:1024C000401B642801D90320A9E7BF48006800F435
:1024D00000300028F2D1207800F00200022857D105
:1024E000B948406800F00C0050B1B748406800F0AF
:1024F0000C00082818D1B448406800F4803098B91E
:10250000B148006800F0020020B12069012801D024
:10251000012084E7AC48006820F0F800616940EAD7
:10252000C100A949086033E02069E8B10120A7494A
:102530000860FFF775F8054606E0FFF771F8401BE5
:10254000022801D903206AE79F48006800F00200D2
:102550000028F2D09C48006820F0F800616940EA49
:10256000C1009949086013E0002098490860FFF70E
:1025700057F8054606E0FFF753F8401B022801D93B
:1025800003204CE79048006800F002000028F2D1D8
:10259000207800F0080008282DD1A069B8B10120EA
:1025A0008B490860FFF73CF8054606E0FFF738F86E
:1025B000401B022801D9032031E78348406A00F01C
:1025C00002000028F2D0012001F04EFD13E00020AF
:1025D0007F490860FFF724F8054606E0FFF720F87A
:1025E000401B022801D9032019E77748406A00F010
:1025F00002000028F2D1207800F00400042873D1F2
:1026000000267148C06900F0805070B900BF6E4864
:10261000C06940F080506C49C8610846C06900F04C
:102620008050009000BF00BF01266A48006800F497
:102630008070B0B96748006840F4807065490860F0
:10264000FEF7EEFF054606E0FEF7EAFF401B6428B2
:1026500001D90320E3E65F48006800F48070002899
:10266000F2D000BFE068012806D15748006A40F068
:1026700001005549086227E0E06858B95248006AED
:1026800020F00100504908620846006A20F004006A
:10269000086219E0E06805280BD14B48006A40F059
:1026A0000400494908620846006A40F001000862D7
:1026B0000AE04548006A20F00100434908620846E4
:1026C000006A20F00400086200BFE068A0B1FEF7D5
:1026D000A7FF054609E0FEF7A3FF401B41F2883142
:1026E000884202D903209AE622E03748006A00F0C7
:1026F00002000028EFD012E0FEF792FF054608E046
:10270000FEF78EFF401B41F28831884201D9032039
:1027100085E62D48006A00F002000028F0D1012E65
:1027200005D12948C06920F080502749C86100BF01
:10273000E069C8B32448406800F00C00082860D065
:10274000E069022848D1002020490866FEF768FFAA
:10275000054606E0FEF764FF401B022801D903206E
:102760005DE61948006800F000700028F2D1206A88
:10277000B0F5803F07D11448406820F40030A168CC
:10278000084311494860D4E9080108430E494968E3
:1027900021F4741108430C49486001200B49086674
:1027A000FEF73EFF054607E02DE0FEF739FF401B30
:1027B000022801D9032032E60348006800F00070C7
:1027C0000028F2D01FE0000000100240000042424A
:1027D000800442420070004000200C490866FEF769
:1027E0001FFF054606E0FEF71BFF401B022801D92C
:1027F000032014E60648006800F000700028F2D1BB
:1028000001E001200BE6002009E600000000424242
:10281000001002407047000010B5044620680068B0
:10282000C0F3400058B120684068C0F3400030B1A8
:102830002046FFF7EFFF6FF00200216848604FF479
:102840000030024908600120607410BD140401408A
:10285000F8B505460C4616460020009005B10CB9A7
:102860000120F8BD00226946284600F01AF808B198
:102870000120F6E7287B2070E87BE070687B6070C1
:10288000A87BA0705EB1E07801F015FCE070607884
:1028900001F011FC6070A07801F00DFCA070002028
:1028A000DFE72DE9F04780460C46914600250026DB
:1028B000AA460027B8F1000F00D014B90120BDE8E6
:1028C000F087D8F800004068C0F3800008B101200C
:1028D000F5E7404601F0B6FC05464FF46160B5FBF4
:1028E000F0F7B5FBF0F100FB11503C21B0FBF1F02B
:1028F00060704FF46160B5FBF0F100FB11503C21BA
:10290000B0FBF1F201FB1200A070182F39D3182090
:10291000B7FBF0FAB7FBF0F100FB117020704046F6
:1029200001F084FC0646701C18B1AE4201D9761B3A
:1029300001E04FF0FF360AEB4A00C000C0EB401147
:10294000C1EB0020A5EB00152946404601F0EDFC47
:1029500008B10120B3E7701C38B12E44314640461F
:1029600001F0CCFC40B10120A9E73146404601F01E
:10297000C5FC08B10120A2E75146404601F0A8FB82
:1029800000E02770B9F1000F0BD0207801F093FB25
:102990002070607801F08FFB6070A07801F08BFBF5
:1029A000A07000208BE7000070B5044600250CB92C
:1029B000012070BD607C20B900202074204600F00A
:1029C0005BF802206074204600F0ECF918B1042096
:1029D00060740120EDE7204601F0D5FB18B104201A
:1029E00060740120E5E72068406820F00700216856
:1029F0004860A06828B11F48006820F001001D4908
:102A000008601C48001F006820F46070A16808433B
:102A10001849091F08606068401C08B1656809E032
:102A20000120FFF749FA05461DB904206074012012
:102A3000BFE76D1E2068806820F00F0040EA154057
:102A4000216888602068C06865F30F002168C8604D
:102A5000204601F0B5FB18B1042060740120A8E7FE
:102A60000021E17301216173A173012060740020D2
:102A70009FE70000306C004038B504460F492068DD
:102A800088421AD1FFF712FA00BF0D48C06940F022
:102A900000600B49C8610846C06900F00060009002
:102AA00000BF00BF0120074908600022114629200D
:102AB000FFF7A9F92920FFF799F938BD0028004050
:102AC000001002403C0442422DE9F84304460D4602
:102AD000174600260020009004B115B90120BDE87A
:102AE000F88300BF207C012801D10220F7E70120F4
:102AF000207400BF02206074002269462046FFF760
:102B0000D0FE08B10120EAE79DF800004FF46161B2
:102B100048439DF80110C1EB011100EB81009DF8C5
:102B2000021000EB01085FB928784FF46161484357
:102B30006978C1EB011100EB8100A978461812E019
:102B4000287801F0ADFA4FF4616100FB01F9687873
:102B500001F0A6FAC0EB001009EB8009A87801F09B
:102B60009FFA09EB0006464501D217480644314654
:102B7000204601F0C3FB38B10420607400BF002080
:102B8000207400BF0120AAE76FF0020021684860AE
:102B90002068006840F00200216808600B48006867
:102BA00040F400300949086008480830006840F4E3
:102BB00000300649083108600120607400BF002021
:102BC000207400BF00BF8AE780510100000401406B
:102BD0002DE9F04704460D46904600260027B146F1
:102BE00004B115B90120BDE8F08700BF207C0128A1
:102BF00001D10220F7E70120207400BF0220607499
:102C0000B8F1000F06D1E978E17369786173A978AA
:102C1000A1730BE0E87801F043FAE073687801F003
:102C20003FFA6073A87801F03BFAA073A27B617B46
:102C3000E07B01F021FB2073207B2870204601F00F
:102C400001FB06464FF46160B6FBF0F9B9F1180FCD
:102C50002FD91820B9FBF0F000EB4000C000C0EB0A
:102C60004011C1EB0020A6EB00163146204601F0D2
:102C70005CFB38B10420607400BF0020207400BFEA
:102C80000120B0E7204601F0D1FA0746781C80B158
:102C9000B7420ED20B4807443946204601F02EFBBE
:102CA00038B10420607400BF0020207400BF0120F0
:102CB00099E70120607400BF0020207400BF00BFAE
:102CC00091E70000805101002DE9F04704460D46D0
:102CD00090460026002704B115B90120BDE8F08711
:102CE00000BF207C012801D10220F7E701202074D9
:102CF00000BF02206074B8F1000F0BD128784FF4A8
:102D0000616148436978C1EB011100EB8100A9784A
:102D1000461812E0287801F0C3F94FF4616100FB16
:102D200001F9687801F0BCF9C0EB001009EB8009EB
:102D3000A87801F0B5F909EB00063146204601F00C
:102D4000F4FA38B10420607400BF0020207400BF82
:102D50000120C3E72068406820F005002168486032
:102D6000204601F063FA0746781C80B1B7420ED2C4
:102D70000B4807443946204601F0C0FA38B1042018
:102D8000607400BF0020207400BF0120A6E701206E
:102D9000607400BF0020207400BF00BF9EE70000E9
:102DA0008051010070B5044600250CB9012070BDAA
:102DB0002068406820F0080021684860FEF730FC79
:102DC000054607E0FEF72CFC401BB0F57A7F01D9E1
:102DD0000320ECE72068406800F008000028F1D0EC
:102DE0000020E4E770B504460E4615460CB90120F4
:102DF00070BD94F83D0028B9002084F83C002046BE
:102E000000F01CF804F108012068FDF7D1FD3146FF
:102E1000A2682068FDF720FE2946236BD4E9010251
:102E2000FDF7A4FDA168206850F8210040F00100E2
:102E3000A268216841F822000020D9E710B50446B5
:102E4000FEF702FA10BD70B504462546681EB0F1C3
:102E5000807F01D301200FE0681E4FF0E021486120
:102E60000F214FF0FF3001F0E9F800204FF0E02192
:102E7000886107200861002070BD024600BF92F8FB
:102E80003C00012801D102207047012082F83C005B
:102E900000BF022082F83D001068406820F07000FA
:102EA00013685860106840680B68184313685860CE
:102EB0001068806820F0800013689860106880684F
:102EC0004B68184313689860012082F83D0000BFEA
:102ED000002082F83C0000BF00BFD5E710B50446D3
:102EE0000CB9012010BD94F83D0028B9002084F8E9
:102EF0003C00204600F00CF8022084F83D00211D23
:102F0000206801F0A1FA012084F83D000020E9E7E3
:102F100008B5124A016891420DD100BF1049C96934
:102F200041F002010E4AD1611146C96901F0020166
:102F3000009100BF11E00B4A016891420DD100BF22
:102F40000749C96941F00401054AD1611146C969BF
:102F500001F00401009100BF00BF08BD0004004063
:102F600000100240000800402DE9F04104460D46E3
:102F7000002600BF94F83C00012802D10220BDE8E1
:102F8000F081012084F83C0000BF022084F83D005D
:102F90002068866826F0770626F47F4620688660DB
:102FA000286850283BD00CDC202860D004DC0028A6
:102FB00053D0102865D155E030285DD0402860D12D
:102FC00041E0602835D070280DD0B0F5805F03D087
:102FD000B0F5005F55D115E02068806820F007004B
:102FE000216888604EE0D5E902136A68206801F024
:102FF00085FA2068866826F0770646F0770620680E
:1030000086603FE0D5E902136A68206801F076FA2D
:103010002068806840F480402168886032E0EA6877
:103020006968206801F068FB5021206801F072FA9D
:1030300028E0EA686968206801F073FB6021206875
:1030400001F068FA1EE0EA686968206801F054FB44
:103050004021206801F05EFA14E00021206801F0B0
:1030600059FA0FE01021206801F054FA0AE02021FB
:10307000206801F04FFA05E03021206801F04AFA9B
:1030800000E000BF00BF012084F83D0000BF002029
:1030900084F83C0000BF00BF71E7000010B586B0A7
:1030A0000446002002900390049005901C4920687B
:1030B000884217D100BF1B48806940F004001949BD
:1030C00088610846806900F00400019000BF00BFDD
:1030D0008020029002200390059002A91248FEF77A
:1030E000F1F81AE011492068884216D100BF0D4856
:1030F000806940F008000B4988610846806900F04B
:103100000800019000BF00BF402002900220039001
:10311000059002A90648FEF7D5F806B010BD0000DC
:103120000004004000100240000801400008004078
:10313000000C014070B504460D46164600BF94F8D9
:103140003C00012801D1022070BD012084F83C0020
:1031500000BF022084F83D0036B1042E1BD0082E9B
:1031600031D00C2E5ED145E02946206801F0DCF913
:103170002068806940F008002168886120688069C3
:1031800020F004002168886120688069296908436B
:103190002168886147E02946206801F001FA20682B
:1031A000806940F40060216888612068806920F4AB
:1031B00080602168886120688069296940EA01206F
:1031C000216888612FE02946206801F029FA2068EB
:1031D000C06940F008002168C8612068C06920F01B
:1031E00004002168C8612068C06929690843216812
:1031F000C86118E02946206801F052FA2068C069C9
:1032000040F400602168C8612068C06920F48060D3
:103210002168C8612068C069296940EA01202168E5
:10322000C86100E000BF00BF012084F83D0000BF7E
:10323000002084F83C0000BF00BF85E710B50446BD
:103240000CB9012010BD94F83D0028B9002084F885
:103250003C00204600F00CF8022084F83D00211DBF
:10326000206801F0F1F8012084F83D000020E9E732
:103270007047000030B504460D46012229462068FB
:1032800001F02EF90C492068884203D00B492068D0
:10329000884201D1012000E0002028B12068406C64
:1032A00040F40040216848642068006840F0010054
:1032B00021680860002030BD002C0140003401402E
:1032C00000BFFEE7014608684069C0F3802088B16E
:1032D0006FF480600A68506104200864002008636D
:1032E000202081F83D0000BF002081F83C0000BF95
:1032F000012070470020FCE72DE9F84304460F4603
:1033000015469946DDE908862068006840F480602B
:10331000216808602068006840F4807021680860B7
:10332000434600224FF001112046009600F02BF991
:1033300010B10320BDE8F88307F0FE0021680861A2
:10334000334642464149204600F05BF930B1206CDB
:10335000042801D10120EDE70320EBE700BF0020A6
:10336000009020684069009020688069009000BF4C
:1033700000BF32464146204600F0D0F960B1206CD3
:10338000042807D12068006840F4007021680860B4
:103390000120CFE70320CDE7B9F1010F03D1E8B257
:1033A0002168086119E0C5F30720216808613246E9
:1033B0004146204600F0B2F960B1206C042807D1E4
:1033C0002068006840F40070216808600120B1E7BF
:1033D0000320AFE7E8B22168086132464146204643
:1033E00000F09CF960B1206C042807D120680068C7
:1033F00040F400702168086001209BE7032099E7F2
:103400002068006840F4807021680860434600220C
:103410004FF001112046009600F0B5F808B10320E6
:1034200088E7F8B240F0010021680861334642465F
:103430000649204600F0E5F830B1206C042801D19F
:10344000012077E7032075E7002073E70200010001
:103450002DE9F8430446884615469946DDE9086794
:103460002068006840F480702168086033460022BC
:103470004FF001112046009700F085F810B10320AD
:10348000BDE8F88308F0FE00216808613B4632463B
:103490002649204600F0B5F830B1206C042801D14F
:1034A0000120EDE70320EBE700BF0020009020683B
:1034B0004069009020688069009000BF00BF3A46D4
:1034C0003146204600F02AF960B1206C042807D16B
:1034D0002068006840F40070216808600120CFE790
:1034E0000320CDE7B9F1010F03D1E8B221680861EB
:1034F00019E0C5F30720216808613A4631462046A5
:1035000000F00CF960B1206C042807D12068006835
:1035100040F40070216808600120B1E70320AFE7A4
:10352000E8B2216808610020AAE70000020001005B
:1035300070B504460D4616461DE02046FFF7C2FE54
:1035400008B1012070BD681CA8B125B1FEF768F86C
:10355000801BA8420FD9206C40F02000206400207E
:103560002063202084F83D0000BF002084F83C0048
:1035700000BF0320E6E720684069C0F38000002810
:10358000DBD00020DEE72DE9F04104460D4617466A
:103590001E46DDF8188017E0701CA8B12EB1FEF7AA
:1035A0003FF8A0EB0800B0420ED900202063202095
:1035B00084F83D00002084F83E0000BF84F83C0001
:1035C00000BF0320BDE8F081C5F3074001280AD100
:1035D00020684069A9B20840A9B2884201D10120FF
:1035E0000BE0002009E020688069A9B20840A9B278
:1035F000884201D1012000E00020B842CCD0002058
:10360000E0E72DE9F04104460D4616461F4631E03D
:1036100020684069C0F38020C0B12068006840F491
:103620000070216808606FF48060216848610420A0
:10363000206400202063202084F83D0000BF00208B
:1036400084F83C0000BF0120BDE8F081701C88B107
:1036500026B1FDF7E5FFC01BB0420BD90020206367
:10366000202084F83D0000BF002084F83C0000BF0B
:103670000320E9E7C5F3074001280AD12068406923
:10368000A9B20840A9B2884201D101200BE0002074
:1036900009E020688069A9B20840A9B2884201D136
:1036A000012000E000200028B2D00020CCE770B557
:1036B00004460D46164629E020684069C0F3001014
:1036C00080B16FF010002168486100202064206301
:1036D000202084F83D0000BF002084F83C0000BF9B
:1036E000012070BD25B1FDF79BFF801BA8420DD9BD
:1036F000206C40F020002064202084F83D0000BFB2
:10370000002084F83C0000BF0320EAE720684069FD
:10371000C0F380100028CFD00020E2E770B5044647
:103720000D4616461DE02046FFF7CCFD08B10120EE
:1037300070BD681CA8B125B1FDF772FF801BA842BF
:103740000FD9206C40F0200020640020206320204E
:1037500084F83D0000BF002084F83C0000BF032037
:10376000E6E720684069C0F3C0100028DBD00020E5
:10377000DEE7000010B5044634B100224FF480515A
:103780000448FDF747FF04E0012211030148FDF75B
:1037900041FF10BD001401402DE9F04106460F46DF
:1037A00014461D46DDF818802B4622463946304621
:1037B00000F08DF804FB05F0414600F065F8BDE827
:1037C000F08100002DE9F047804689461546A5F1B5
:1037D000200000F0FF0A102308224946404600F06E
:1037E00076F82C2000F0CEF9002417E00D4800EB0D
:1037F0000A10065D00270DE006F0010018B11F2039
:1038000000F0C4F903E04FF6FF7000F0BFF9761046
:10381000781CC7B2082FEFDB601CC4B2102CE5DBAC
:10382000BDE8F0872060000870B505460E461446D6
:1038300001231A463146284600F049F82146012066
:1038400000F022F870BD70B505460E46144617E02C
:1038500028460830F02803DD002506F1100086B266
:1038600030461030B0F5A07F01DD0025002622781B
:1038700031462846FFF7A6FF641C05F1080085B213
:1038800020780028E4D170BD10B502460B46002414
:103890002C2000F077F900BF03E0184600F076F91D
:1038A000641C9442F9D310BD08B50120FFF762FFF4
:1038B00000F052F900F038F84FF6FF704FF4A073A3
:1038C000F022002100900846FFF766FF08BD30B5E2
:1038D00004460D462A2000F055F9201200F056F952
:1038E000E0B200F053F9A118491EC1F30F2000F017
:1038F0004DF9A118491EC8B200F048F92B2000F07C
:1039000041F9281200F042F9E8B200F03FF9E91855
:10391000491EC1F30F2000F039F9E918491EC8B259
:1039200000F034F930BD000000B5CF2000F02AF9D6
:10393000002000F02BF9812000F028F9302000F061
:1039400025F9ED2000F01EF9642000F01FF9032096
:1039500000F01CF9122000F019F9812000F016F98E
:10396000E82000F00FF9852000F010F9102000F099
:103970000DF9782000F00AF9CB2000F003F9392086
:1039800000F004F92C2000F001F9002000F0FEF80E
:10399000342000F0FBF8022000F0F8F8F72000F0E7
:1039A000F1F8202000F0F2F8EA2000F0EBF8002017
:1039B00000F0ECF8002000F0E9F8B12000F0E2F8A7
:1039C000002000F0E3F81B2000F0E0F8B62000F043
:1039D000D9F80A2000F0DAF8A22000F0D7F8C020C9
:1039E00000F0D0F8352000F0D1F8C12000F0CAF87E
:1039F000112000F0CBF8C52000F0C4F8452000F0FD
:103A0000C5F8452000F0C2F8C72000F0BBF8A2209E
:103A100000F0BCF8F22000F0B5F8002000F0B6F895
:103A2000262000F0AFF8012000F0B0F8E02000F010
:103A3000A9F80F2000F0AAF8262000F0A7F824200B
:103A400000F0A4F80B2000F0A1F80E2000F09EF882
:103A5000092000F09BF8542000F098F8A82000F00E
:103A600095F8462000F092F80C2000F08FF817200F
:103A700000F08CF8092000F089F80F2000F086F89B
:103A8000072000F083F8002000F080F8E12000F02B
:103A900079F8002000F07AF8192000F077F81B2060
:103AA00000F074F8042000F071F8102000F06EF8B7
:103AB000072000F06BF82A2000F068F8472000F09B
:103AC00065F8392000F062F8032000F05FF8062066
:103AD00000F05CF8062000F059F8302000F056F8AD
:103AE000382000F053F80F2000F050F8362000F096
:103AF00049F8C82000F04AF82A2000F043F80020D6
:103B000000F044F8002000F041F8002000F03EF8FA
:103B1000EF2000F03BF82B2000F034F8002000F0FC
:103B200035F8002000F032F8012000F02FF83F2097
:103B300000F02CF83A2000F025F8552000F026F887
:103B4000112000F01FF80348FCF705FF292000F0C2
:103B500019F800BDFCBF020010B500220221074881
:103B6000FDF758FD0648FCF7F6FE01220221034846
:103B7000FDF750FD0248FCF7EEFE10BD00180140B5
:103B8000FCBF02004FF0C041088070470149088027
:103B900070470000000002600EB500200090019008
:103BA0000290124812490860002111488160C160EA
:103BB00041614FF46021C16100200D49486001213D
:103BC0000B480161FDF7A0F808B1FCF7CDFE062017
:103BD0000090012001900020029069460448FCF703
:103BE000DFFF08B1FCF7C0FE0EBD0000002401405D
:103BF000180000200EB5002000900190029012489D
:103C000012490860002111488160C16041614FF490
:103C10006021C16100200D49486001210B4801610C
:103C2000FDF772F808B1FCF79FFE0220009001201A
:103C300001900020029069460448FCF7B1FF08B1EA
:103C4000FCF792FE0EBD0000002801404800002055
:103C50000EB50020009001900290124812490860B1
:103C6000002111488160C16041614FF46021C16150
:103C700000200D49486001210B480161FDF744F81F
:103C800008B1FCF771FE0320009001200190002094
:103C9000029069460448FCF783FF08B1FCF764FE14
:103CA0000EBD0000003C01407800002000B587B048
:103CB0001C216846FCF76FFA4FF020401A49086053
:103CC0001A4848600020886000211748C1600161DF
:103CD0001021416100218161C161016241624FF4A3
:103CE000805181620021C1620163416381630F20C1
:103CF00000900190FF2002900F200390102004906C
:103D00001120059000200690002269460648FFF722
:103D100069F808B1FCF728FE0548C06940F48060E6
:103D20000349C86107B000BD90010020040100A054
:103D30000000014000B585B0002001900290039082
:103D4000049000BF4B48806940F0400049498861B9
:103D50000846806900F04000009000BF00BF00BF2F
:103D60000846806940F0100088610846806900F0CC
:103D70001000009000BF00BF00BF0846806940F0FF
:103D8000040088610846806900F00400009000BFCC
:103D900000BF00BF0846806940F0080088610846FF
:103DA000806900F00800009000BF00BF00BF084617
:103DB000806940F0200088610846806900F020009A
:103DC000009000BF00BF002222212B48FDF722FCFB
:103DD000002240F223312948FDF71CFC002241F269
:103DE00008012748FDF716FC2220019001200290CF
:103DF000002003900320049001A91F48FDF762FAF8
:103E00000120019000200290039001A91D48FDF7B8
:103E100059FA10200190002002900120039001A97E
:103E20001848FDF74FFA40F223300190012002902C
:103E3000002003900320049001A91048FDF742FAE6
:103E400041F208000190012002900020039003201D
:103E5000049001A90A48FDF735FA4FF4E07001908B
:103E6000002002900120039001A90748FDF72AFADB
:103E700005B000BD0010024000180140000C0140D8
:103E800000140140000801400010014010B50B482B
:103E90000B4908600B484860002109488160C160F7
:103EA0004FF480410161002141618161C161016282
:103EB000FDF7BCFB08B1FCF757FD10BD00580040F2
:103EC000A8000020A086010000B58DB00020099058
:103ED0000A900B900C90079008901C216846FCF704
:103EE0005AF922482249086040F217104860002120
:103EF0001F48816040F2CF71C16000210161816182
:103F0000FEF7ECFF08B1FCF72FFD4FF4805009904D
:103F100009A91748FFF728F808B1FCF725FD144850
:103F2000FFF78CF908B1FCF71FFD002007900890FF
:103F300007A90F48FEF7A1FF08B1FCF715FD6020A7
:103F400000900020019002900490042269460848E5
:103F5000FFF7F0F808B1FCF707FD0548FFF79EF8FA
:103F600004210348FFF786F90DB000BD00040040AE
:103F70001001002000B58DB0002009900A900B9030
:103F80000C90079008901C216846FCF704F9224821
:103F90002249086040F21710486000211F488160E4
:103FA00040F2CF71C160002101618161FEF796FF8F
:103FB00008B1FCF7D9FC4FF48050099009A91748C3
:103FC000FEF7D2FF08B1FCF7CFFC1448FFF736F933
:103FD00008B1FCF7C9FC00200790089007A90F481A
:103FE000FEF74BFF08B1FCF7BFFC602000900020FB
:103FF000019002900490002269460848FFF79AF861
:1040000008B1FCF7B1FC0548FFF748F80021044867
:10401000FFF730F90DB000BD00080040500100204E
:104020001001002000BFFEE7704700000248006852
:10403000C0F30220704700000CED00E010B500282E
:1040400007DA0A07140E054A00F00F031B1FD454A9
:1040500003E00A07130E024A135410BD18ED00E0E6
:1040600000E400E07047000008B508490968C90885
:104070004FF47A72B1FBF2F14143009100BF00BFEF
:1040800000994A1E00920029F9D108BD14000020B1
:1040900010B50248FEF7C0FB10BD0000FC00002078
:1040A000014600BF080900EB8000420001F00F004C
:1040B0001044C0B270470146002203E0521CA1F137
:1040C0000A00C1B20A29F9D2100741EA106070470C
:1040D0002DE9F04706468846002700240025A14622
:1040E000F77B747BB57B00BF40E0012C0BD0032C29
:1040F00009D0052C07D0072C05D0082C03D00A2C9A
:1041000001D00C2C0CD11F2D01D26D1C2CE00C2CDD
:1041100002D0641C012527E0012401257F1C23E037
:10412000042C05D0062C03D0092C01D00B2C06D171
:104130001E2D01D26D1C17E0641C012514E0022C19
:1041400012D11C2D01D26D1C0EE01C2D08D1B8B26D
:1041500000F053F808B16D1C06E0641C012503E073
:104160001D2D01D1641C012509F10109C145BCD3F4
:10417000F7737473B573EAB2E1B2384600F07CF8B5
:104180003073BDE8F08770B504460025FDF748FAA6
:10419000054607E0FDF744FA401BB0F57A7F01D9E8
:1041A000032070BD2068406800F020000028F1D096
:1041B0002068406840F01000216848600020F0E767
:1041C00070B5044600252068406820F01000216882
:1041D0004860FDF725FA054607E0FDF721FA401B88
:1041E000B0F57A7F01D9032070BD2068406800F0E7
:1041F00020000028F1D00020F6E7014601F003007E
:1042000008B1002070476420B1FBF0F200FB1210EF
:1042100008B10120F6E74FF4C870B1FBF0F200FBE3
:10422000121008B90120EDE70020EBE7014600225B
:1042300000230868006A82B20868406A83B243EAD1
:104240000240704730B501460022002300240020C0
:104250000D68AD69AAB20D68ED69ACB20D68AD69C3
:10426000ABB29A4205D00D68ED6963F31F4528464D
:1042700001E044EA024030BDF0B504460B4600219F
:10428000002504F5FA61032B1BD2C3EBC30000EB3E
:1042900003100926B0FBF6F01044001D4618481E16
:1042A00006EB90066427B0FBF7F0361A481EBF00F5
:1042B000B0FBF7F030440726B0FBF6F706FB170516
:1042C0001AE0C3EBC30000EB03100926B0FBF6F0C5
:1042D0001044001D084400EB91006426B1FBF6F683
:1042E000801B4FF4C876B1FBF6F63044801E0726DB
:1042F000B0FBF6F706FB1705E8B2F0BD70B5044653
:104300000D4600262046FFF73EFF08B101260AE0D1
:10431000280C21680862A8B2216848622046FFF78D
:104320004FFF00B10126304670BD70B504460D4602
:1043300000262046FFF727FF08B101260AE0280CD7
:1043400021688861A8B22168C8612046FFF738FF5C
:1043500000B10126304670BD704710B5FDF7D6FCA0
:1043600010BD00B595B028210BA8FBF714FF142150
:1043700006A8FBF710FF18216846FBF70CFF092081
:104380000B904FF480300C9000200D9001200F9086
:10439000119002201290C10313914FF4A0111491B7
:1043A0000BA8FEF717F808B1FCF7DEFA0F2006900D
:1043B00002200790002008904FF4806009900020B0
:1043C0000A90022106A8FDF7ADFE08B1FCF7CCFA71
:1043D000032000904FF40070019040010290684665
:1043E000FDF708FE08B1FCF7BFFA15B000BD0000EC
:1043F0001148006840F001000F4908600846406815
:104400000E4908400C494860084600680C490840BD
:10441000094908600846006820F4802008600846C2
:10442000406820F4FE0048604FF41F008860C80315
:104430000449086070470000001002400000FFF8C7
:10444000FFFFF6FE08ED00E0002202681F4B9842D5
:104450000ED01F4B98420BD0B0F1804F08D01D4BAF
:10446000984205D01C4B984202D01C4B984203D175
:1044700022F070024B681A43144B98420ED0144B32
:1044800098420BD0B0F1804F08D0124B984205D023
:10449000114B984202D0114B984203D122F4407242
:1044A000CB681A4322F080024B691A4302608B6882
:1044B000C3620B688362054B984202D0044B98425A
:1044C00001D10B690363012343617047002C014054
:1044D000003401400004004000080040000C00408F
:1044E00030B50023012404FA01F3046A9C430462FA
:1044F000046A02FA01F52C43046230BD30B50C4663
:104500000021816821F47F4142EA032525432943A4
:10451000816030BD0A460021816821F0700142F0BF
:10452000070319438160704730B50024002200233F
:10453000056A25F001050562026A4368846924F072
:10454000700424F003040D682C4322F002028D68ED
:104550002A43114DA84200D103E0104DA84206D1D4
:1045600000BF22F00802CD682A4322F004020A4D5F
:10457000A84202D0094DA84207D123F4807323F446
:1045800000734D692B438D692B43436084614D68F3
:104590004563026230BD0000002C01400034014040
:1045A00030B5002400220023056A25F010050562BD
:1045B000026A4368846924F4E04424F440740D687A
:1045C00044EA052422F020028D6842EA0512124DC9
:1045D000A84200D103E0114DA84207D100BF22F04C
:1045E0008002CD6842EA051222F040020A4DA8423C
:1045F00002D00A4DA84209D123F4806323F400635A
:104600004D6943EA85038D6943EA8503436084610C
:104610004D688563026230BD002C014000340140CA
:1046200030B5002400220023056A25F48075056258
:10463000026A4368C46924F0700424F003040D681E
:104640002C4322F400728D6842EA0522124DA842E2
:1046500000D103E0114DA84207D100BF22F400624F
:10466000CD6842EA052222F480620B4DA84202D0B6
:104670000A4DA84209D123F4805323F400534D6915
:1046800043EA05138D6943EA05134360C4614D682D
:10469000C563026230BD0000002C014000340140BF
:1046A00030B5002200230024056A25F480550562F8
:1046B000036A4468C26922F4E04222F440720D6841
:1046C00042EA052223F400538D6843EA0533084D7E
:1046D000A84202D0074DA84204D124F480444D6979
:1046E00044EA85144460C2614D680564036230BDCC
:1046F000002C01400034014030B50B461446002127
:104700000022026A056A25F001050562816921F02F
:10471000F00141EA041122F00A021A4381610262A7
:1047200030BD30B50B46144600210022056A25F045
:10473000100505628169026A21F4704141EA043181
:1047400022F0A00242EA03128161026230BD2DE92B
:10475000F04306460F4690464FF00009102515E03D
:104760002C460FE0AC4201D1A7F10109C4F11002BF
:104770003A4491B2B0B24246FFF756F8012C00D14C
:104780004F46641E002CEDDC761CAD1E022DE7DAD0
:10479000BDE8F08300BFFEE70FB4084B10B504A9D5
:1047A00002AA039800F052F9044602A9002000F082
:1047B000E4FC204610BC5DF814FB00007B510008AF
:1047C000490050EAC12018BF04204A0D18BF40F02C
:1047D000010040F2FF72B2EB515F08BF40F00200EF
:1047E000012808BF052070472DE9F0414F1E00EB5E
:1047F000C7010446D1E9000115461E4637F00602FE
:104800000DD02A463346FBF778FD7F1E04EBC70325
:10481000D3E90023FBF7CAFC37F00602F1D1022FDF
:1048200025D0042F13D0062F18BFBDE8F0812A46EB
:104830003346FBF762FDD4E90A23FBF7B7FC2A46AF
:104840003346FBF75AFDD4E90823FBF7AFFC2A46B1
:104850003346FBF752FDD4E90623FBF7A7FC2A46B3
:104860003346FBF74AFDD4E90423FBF79FFC2A46B5
:104870003346FBF742FDD4E90223FBF797FC2A46B7
:104880003346FBF73AFDD4E90023BDE8F041FBF7DE
:104890008DBC0122FBF7AEBF024A00201107FBF7D7
:1048A000A9BF000001FDFFFF02E008C8121F08C1F8
:1048B000002AFAD170477047002001E001C1121FA1
:1048C000002AFBD1704700002DE9FF5F82B0002174
:1048D000DDE90430020DDDF840B0034318D044F6A2
:1048E0001050A2F2FF3242431514119801281FD034
:1048F000A5EB0B00401C5FEA000A4FF000064E4F8C
:10490000DFF83891B046504615D5CAF1000413E0DF
:10491000119801244AA3012801D16FEA0B010298E2
:10492000119AC0E90031C0E9024206B0BDE8F09F2B
:10493000CBF10000DFE704460021404A491842EB72
:104940000450CDE9001012E0E00707D032463B46A4
:1049500040464946FBF7D1FC8046894632463B46F5
:1049600010461946FBF7C9FC06460F466410002C9A
:10497000EAD1DDE90401DDE90023BAF1000F06DA2E
:10498000FBF7BBFC42464B46FBF7B7FC05E0FBF7E9
:1049900026FD42464B46FBF722FD04460E4600220A
:1049A000284BFBF7E3FD03D84FF0FF30014607E04B
:1049B0000022254B20463146FBF7F8FBFBF731FF81
:1049C000102409E0002C0ADB0A220023FBF72CFE4E
:1049D000039B30321A55641E50EA0102F2D1641C66
:1049E000039AC4F111031444119A012A03D001223D
:1049F00008430DD10AE0084304D000204FF0110B0A
:104A0000119072E7A3EB0B056D1E0DE05B4504DD15
:104A10004FF0000205F1010504E003DA4FF0000257
:104A2000A5F10105002AECD002981199C0E90231E4
:104A3000C0E9004579E70000000014400000F03FA5
:104A4000300000000000F0430000E03F2DE9FF4F80
:104A500095B09B468946064600250FE2252877D16A
:104A600000242746F84A0121059400E0044316F883
:104A7000013F203B01FA03F01042F7D130782A2899
:104A800011D06FF02F033078A0F13002092A16D828
:104A9000059A44F0020402EB820203EB4202104446
:104AA000761C0590EFE759F8042B0592002A03DAEB
:104AB000504244F40054059044F00204761C3078CF
:104AC0002E2816D116F8010F44F004042A280DD020
:104AD0006FF02F023078A0F13003092B09D807EBD3
:104AE000870302EB4303C718761CF3E759F8047BEE
:104AF000761C30786C280FD006DC4C2817D068283C
:104B00000DD06A2814D104E0742810D07A280FD16F
:104B10000DE044F400140AE044F4801401E044F48D
:104B200040147278824202D104F58014761C761CFF
:104B3000307866280BD013DC582877D009DC0028A1
:104B400075D04528F6D04628F4D047281AD19DE1E3
:104B500018E0632835D0642879D0652812D195E112
:104B6000702873D008DC6728F1D069286FD06E28D0
:104B70000DD06F2806D1B5E073282CD0752875D0DC
:104B8000782874D05A46179990476D1C75E1C4F384
:104B90000250022809D003280DD0D9F800100428AB
:104BA0000DD00D6009F1040967E1D9F80010EA178A
:104BB000C1E90052F6E7D9F800100D80F2E70D7058
:104BC000F0E719F8041B8DF8001000208DF80100A3
:104BD000EA46012003E059F804AB4FF0FF306107CB
:104BE0004FF0000102D40DE008F101018846B942FE
:104BF0000FDA8045F8DB1AF808100029F4D108E034
:104C000008F1010188468142FADB1AF808100029F0
:104C1000F6D105985B46A0EB080721463846179A5F
:104C200000F094FA284400EB080507E04DE029E184
:104C30000DE01AF8010B5A4617999047B8F1010890
:104C4000F7D25B4621463846179A13E142E00A2222
:104C50000092C4F302524FF0000A022A08D059F819
:104C600004CB032A4FEAEC710AD00DE029E02AE0D8
:104C700009F1070121F00702F2E802C1914609E0BB
:104C80000FFA8CFC4FEAEC71042A03D14FFA8CFC2A
:104C90004FEAEC71002907DA0A460021DCF1000C2A
:104CA00061EB02012D2202E0220504D52B228DF8B2
:104CB0000420012203E0E20701D02022F7E790461A
:104CC00059E00A2102E010220DE010214FF0000A05
:104CD00000910BE010224FF0000A44F00404082772
:104CE000009203E008224FF0000A0092C4F302523F
:104CF000022A05D059F804CB0021032A08D009E084
:104D000009F1070121F00702F2E802C1914605E02E
:104D10001FFA8CFC042A01D10CF0FF0C4FF00008A4
:104D2000220728D5702806D0009B83F0100353EA91
:104D30000A0305D00EE040228DF80420012208E08D
:104D40005CEA010206D030228DF804208DF80500BF
:104D500002229046009B83F0080353EA0A030AD11B
:104D60005CEA010201D1620705D530228DF80420EA
:104D70004FF001087F1E582804D034A003900EA8DD
:104D800002900DE036A0F9E753466046009AFBF723
:104D90004BFC84460398825C0298401E029002708D
:104DA0005CEA0100F0D1029806A9081A00F1200A75
:104DB000600702D524F4803400E00127574502DD66
:104DC000A7EB0A0000E0002000EB0A010090059824
:104DD0004144401A0590E00306D45B462146179AE9
:104DE000059800F0B3F90544002706E001A85A46EB
:104DF000C05D179990476D1C7F1C4745F6DBE003AB
:104E00000CD55B462146179A059800F09FF905449A
:104E100004E030205A46179990476D1C0099481EAF
:104E200000900029F5DC08E0029802995A460078C3
:104E3000491C0291179990476D1CBAF10001AAF123
:104E4000010AF1DC65E1000009280100303132334C
:104E500034353637383961626364656600000000B6
:104E600030313233343536373839414243444546A0
:104E70000000000000F058F90544761C3078002846
:104E80007FF4ECAD19B02846BDE8F08F620700D47E
:104E9000062709F1070222F0070CFCE80223E1468D
:104EA00003F000485FEA080C02D00FF2702C0DE00E
:104EB0005FEA045C02D50FF2682C07E05FEAC47C6D
:104EC00002D00FF2602C01E0AFF2700C4FF0FF380F
:104ED00023F00043CDF850C065280CD006DC4528EF
:104EE00009D046281DD047283DD13DE0662818D07E
:104EF00067287ED138E00021112F01DB112000E06E
:104F0000781CCDE9000106A90EA8FFF7DDFCDDE95C
:104F10000F010E9A03910021009207F1010A0491FA
:104F20004DE04FF000400097CDE9011006A90EA812
:104F3000FFF7CAFCDDE90F0203920E9B11990022D4
:104F4000DDF80CA00093049211B9791C00EB010A62
:104F5000B7EB0A0004D4C0F1FF3007F1010A049056
:104F6000AAEB0700019044E0012F00DA012700219D
:104F7000112F01DD112000E03846CDE9000106A91E
:104F80000EA8FFF7A1FCDDE90F010E9A03910021A5
:104F900004910092BA4621070CD40399514500DAD6
:104FA0008A46BAF1010F05DD009AAAF10101515CB0
:104FB000302908D0B84202DA10F1040F06DA0121D4
:104FC000CDE9011015E0AAF10101E9E7002805DCAF
:104FD000049901440491AAEB000102E0411C5145EF
:104FE00000DD8A460499401A401C01904FF00040B1
:104FF0000290200704D40198504501DBCDF80480CD
:1050000000208DF84F0002980DF14F07B0F1004FCE
:1050100025D02B200E9002984FF0020800280CDAC1
:10502000404202902D200E9007E00A210298FBF7E3
:10503000E5FA3031029007F8011DB8F10001A8F13E
:105040000108F2DC02980028EFD1791E0E98087052
:10505000307800F0200040F0450007F8020D12A85B
:10506000C01B00F107081498007800B1012000EB84
:105070000A01019801EBE07105984144401A401E75
:105080000590E00306D45B462146179A059800F088
:105090005DF805441498007818B15A46179990475E
:1050A0006D1CE00324D55B462146179A059800F055
:1050B0004DF805441CE00498002807DBDDE90301F6
:1050C000884203DD0098405C179901E01799302071
:1050D0005A469047049805F10105401C0490019838
:1050E000401E019004D12E205A46179990476D1CFE
:1050F000BAF10001AAF1010ADDDC05E017F8010BA5
:105100005A46179990476D1CB8F10001A8F10108A3
:10511000F4DC5B462146179A0598ABE62D000000AB
:105120002B000000200000002DE9F041044600257E
:105130001E461746880404D405E039462020B047AF
:105140006D1C641EF9D52846BDE8F0812DE9F041BB
:10515000044600251E469046C80301D5302700E0CE
:105160002027880404D505E041463846B0476D1C29
:10517000641EF9D52846BDE8F0810A68531C0B600F
:10518000107070472DE9F84F04460D4621F000409D
:1051900000917349814211DC7249884201DC06D1D9
:1051A0002CB120462946BDE8F84FFFF772BB6E4888
:1051B000002DCCBF6D496E49BDE8F88F6D49814225
:1051C00011DD6D498142D8BF4FF0FF366DDD2046BD
:1051D0002946FFF7F5FA042808BFFFF75DFB2046D4
:1051E0002946BDE8F88F6549654F25F000458142A5
:1051F00033DD6449814219DD002632464FF0804399
:1052000020462946FAF7D2FF80468A4601222046E8
:105210002946FBF7EFFA00223B46FBF768F84246C7
:105220005346FBF7DCF804460D463EE0012600221B
:10523000BA463B4620462946FAF7B8FF80460F4655
:105240000022534620462946FBF751F842463B468A
:10525000FBF7C5F804460D4627E04B4981421BDDAC
:10526000DFF828A102260022534620462946FBF7F4
:1052700044F800223B46FAF799FF80460F46002289
:10528000534620462946FBF732F842463B46FBF799
:10529000A6F804460D4608E0032622462B460020C9
:1052A0003B49FBF79CF804460D4622462B46104628
:1052B0001946FBF722F88B46824602460B46FBF75F
:1052C0001CF807460246334888460B4606217844B8
:1052D000FFF78AFA52465B46FBF70FF882462E48E4
:1052E0008B463A46434605217844FFF77DFA3A4615
:1052F0004346FBF702F802460B46002E504659463D
:105300000CDAFAF753FF22462B46FAF7F6FF01B004
:1053100022462B46BDE8F04FFAF7ECBFFAF746FFFE
:1053200022462B46FAF7E9FF1C4A7A4402EBC603F1
:10533000D3E90023FAF7DBFF22462B46FAF7D7FF23
:10534000174A7A4402EBC603D3E90023FAF7D2FFE7
:10535000009A002AB8BF81F00041BDE8F88F000034
:10536000000010440000F07F182D4454FB21F93F49
:10537000FB21F9BF0000DC3F0000203E0000F33FAE
:105380000000F03F0000E63F008003400000F83FCF
:105390000000F0BFBE1300007C1300001A130000D1
:1053A000E2120000C8B0FCF7BDFCFB48FB490860F6
:1053B0004FF0FF3048604FF48071F8488160FDF78E
:1053C000F3FA08B1FBF7D0FAFEF7CBFFFEF7B2FC19
:1053D000FEF77AFDFEF7CEFDFEF768FCFEF756FD00
:1053E000FEF7DAFBFEF706FCFEF732FCFEF75CFA8E
:1053F0000020469045904390449001208DF8140180
:105400008DF815018DF8160100208DF81701002286
:1054100045A9E248FDF7DCFB08B1FBF7A5FA1E2021
:10542000429070204190A020409001203D90642047
:10543000012141AACDE9002102904FF6FF71429867
:1054400001EA40000123002201461D90D448FCF7E8
:105450004FFB6420012140AACDE9002102904FF6C4
:10546000FF71429801EA400001231A4601461D904F
:10547000CB48FCF73DFBCBA200211E20FEF7E3F951
:10548000CAA214211E20FEF7DEF9CBA228211E207D
:10549000FEF7D9F9CAA23C211E20FEF7D4F9CBA20F
:1054A00050211E20FEF7CFF9CCA264211E20FEF76A
:1054B000CAF9CDA278211E20FEF7C5F9CEA28C2113
:1054C0001E20FEF7C0F9D1A2A0211E20FEF7BBF9D5
:1054D000D2A2B4213C20FEF7B6F9D4A2C8215020B4
:1054E000FEF7B1F9D2A2C821A020FEF7ACF9052041
:1054F000389007203790CFA136A8389AFFF74CF99B
:10550000CCA135A8379AFFF747F936AA0021C82061
:10551000FEF799F935AA2821C820FEF794F914203E
:1055200034901E203390C3A132A8349AFFF734F987
:10553000C0A131A8339AFFF72FF932AA3C21C82025
:10554000FEF781F931AA6421C820FEF77CF9042016
:10555000309006202F90B7A12EA8309AFFF71CF9A3
:10556000B4A12DA82F9AFFF717F92EAA7821C820E9
:10557000FEF769F92DAAA021C820FEF764F90020E2
:105580002C902B90ABA12AA82C9AFFF705F9A9A182
:1055900029A82B9AFFF700F92AAAC8213220FEF782
:1055A00052F929AAC8218220FEF74DF90020259042
:1055B0002490A148FBF772FAA048FBF76FFAA048C5
:1055C000FBF76CFAFDE34FF400519E48FCF71AF824
:1055D0001D9001219C48FCF715F81C90002246A95B
:1055E0006E48FDF75EF9002245A96C48FDF730F9D9
:1055F000C820FBF715FE9DF80C019DF81811884294
:1056000017D19DF80D019DF81911884211D19DF80F
:105610000E019DF81A1188420BD1642000F0EAFCBB
:105620004FF49660FBF7FCFDC82000F0E3FC00207F
:10563000249040218348FBF7E5FF28BB01202490FC
:1056400000208DF818018DF819018DF81A0100223B
:1056500046A95248FDF738FB08B1FBF785F9002051
:105660008DF80C012C98C0B28DF80D012B98C0B2AA
:105670008DF80E0100204490002243A94748FDF711
:1056800023FA08B1FBF770F9249801282BD19DF873
:105690001A01024667A10A9026A8FFF77DF89DF837
:1056A0001901024663A10A9027A8FFF775F89DF833
:1056B000180102465FA10A9028A8FFF76DF863A2BF
:1056C000DC210020FEF7BFF828AADC214620FEF7E7
:1056D000BAF827AADC216E20FEF7B5F826AADC214D
:1056E0009620FEF7B0F880215648FBF78BFF28B9CB
:1056F0002598401C2590C820FBF792FD2598C117DE
:105700000A9000EB5170C1100A98A0EBC100082864
:1057100010D2DFE800F004101C28349FABB7002241
:1057200011460A20FFF713F84FF6FF72C8216E20CA
:10573000FFF70DF8B2E0002228210A20FFF707F852
:105740004FF6FF7200210A20FFF701F8A6E00022C1
:105750003C210A20FEF7FBFF4FF6FF7228210A20AA
:10576000FEF7F5FF9AE0002264210A20FEF7EFFF22
:105770004FF6FF723C210A20FEF7E9FF8EE000227F
:1057800078210A20FEF7E3FF4FF6FF7264210A201A
:10579000FEF7DDFF82E0000000280040FC00002052
:1057A000A80000207048204D696E3A00437572725F
:1057B000656E742070483A007048204D61783A0058
:1057C00054656D70204D696E3A0000004375727229
:1057D000656E742054656D703A00000054656D70FC
:1057E000204D61783A000000636C61726974792021
:1057F0004D696E3A0000000043757272656E742048
:10580000636C61726974793A00000000636C6172C4
:10581000697479204D61783A00000000466565643E
:10582000696E672054696D6572203A004872000005
:105830004D696E00253264001800002048000020E9
:10584000780000200010014000080140456C6170A4
:10585000736564000022A0210A20FEF778FF4FF64E
:10586000FF7278210A20FEF772FF17E00022C8219C
:105870002820FEF76CFF4FF6FF72A0210A20FEF7EA
:1058800066FF0BE00022C8216E20FEF760FF4FF696
:10589000FF72C8212820FEF75AFF00BF00BF2598DD
:1058A000C1170A9000EB5170C1100A98A0EBC1001B
:1058B000082824D2DFE800F00424446484A4C4E46B
:1058C0001C98012806D13898401C38904FF4C870B5
:1058D000FBF7A6FC1D98012806D13898401E389089
:1058E0004FF4C870FBF79CFCAFF2B80136A8389AA9
:1058F000FEF752FF36AA0021C820FDF7A4FFDFE023
:105900001C98012806D13798401C37904FF4C87076
:10591000FBF786FC1D98012806D13798401E37906A
:105920004FF4C870FBF77CFCAFF2F80135A8379A4A
:10593000FEF732FF35AA2821C820FDF784FFBFE01B
:105940001C98012806D13498401C34904FF4C8703C
:10595000FBF766FC1D98012806D13498401E349050
:105960004FF4C870FBF75CFCAFF2381132A8349AE0
:10597000FEF712FF32AA3C21C820FDF764FF9FE02A
:105980001C98012806D13398401C33904FF4C870FE
:10599000FBF746FC1D98012806D13398401E339032
:1059A0004FF4C870FBF73CFCAFF2781131A8339A82
:1059B000FEF7F2FE31AA6421C820FDF744FF7FE024
:1059C0001C98012806D13098401C30904FF4C870C4
:1059D000FBF726FC1D98012806D13098401E309018
:1059E0004FF4C870FBF71CFCAFF2B8112EA8309A28
:1059F000FEF7D2FE2EAA7821C820FDF724FF5FE033
:105A00001C98012806D12F98401C2F904FF4C87085
:105A1000FBF706FC1D98012806D12F98401E2F90F9
:105A20004FF4C870FBF7FCFBAFF2F8112DA82F9ACA
:105A3000FEF7B2FE2DAAA021C820FDF704FF3FE02B
:105A40001C98012806D12C98401C2C904FF4C8704B
:105A5000FBF7E6FB1D98012806D12C98401E2C90E0
:105A60004FF4C870FBF7DCFBAFF238212AA82C9A60
:105A7000FEF792FE2AAAC8213220FDF7E4FE1FE0BD
:105A80001C98012806D12B98401C2B904FF4C8700D
:105A9000FBF7C6FB1D98012806D12B98401E2B90C2
:105AA0004FF4C870FBF7BCFBAFF2782129A82B9A02
:105AB000FEF772FE29AAC8218220FDF7C4FE00BFAE
:105AC00000BFFB48FBF714FBFA48FBF711FBFA4851
:105AD000FBF70EFBC821F648FBF752FAC821F54840
